{
  "contractName": "Market",
  "abi": [
    {
      "constant": true,
      "inputs": [
        {
          "name": "",
          "type": "address"
        }
      ],
      "name": "userBalance",
      "outputs": [
        {
          "name": "timeStart",
          "type": "uint256"
        },
        {
          "name": "currentFund",
          "type": "uint256"
        }
      ],
      "payable": false,
      "stateMutability": "view",
      "type": "function"
    },
    {
      "constant": true,
      "inputs": [
        {
          "name": "",
          "type": "address"
        },
        {
          "name": "",
          "type": "uint256"
        }
      ],
      "name": "buyerItems",
      "outputs": [
        {
          "name": "",
          "type": "uint256"
        }
      ],
      "payable": false,
      "stateMutability": "view",
      "type": "function"
    },
    {
      "constant": true,
      "inputs": [],
      "name": "buyBackRate",
      "outputs": [
        {
          "name": "",
          "type": "uint256"
        }
      ],
      "payable": false,
      "stateMutability": "view",
      "type": "function"
    },
    {
      "constant": true,
      "inputs": [],
      "name": "pointContract",
      "outputs": [
        {
          "name": "",
          "type": "address"
        }
      ],
      "payable": false,
      "stateMutability": "view",
      "type": "function"
    },
    {
      "constant": true,
      "inputs": [],
      "name": "interestRate",
      "outputs": [
        {
          "name": "",
          "type": "uint256"
        }
      ],
      "payable": false,
      "stateMutability": "view",
      "type": "function"
    },
    {
      "constant": true,
      "inputs": [
        {
          "name": "",
          "type": "uint256"
        }
      ],
      "name": "items",
      "outputs": [
        {
          "name": "name",
          "type": "string"
        },
        {
          "name": "price",
          "type": "uint256"
        },
        {
          "name": "owner",
          "type": "address"
        },
        {
          "name": "imageUrl",
          "type": "string"
        },
        {
          "name": "itemType",
          "type": "uint256"
        },
        {
          "name": "isSelling",
          "type": "bool"
        }
      ],
      "payable": false,
      "stateMutability": "view",
      "type": "function"
    },
    {
      "constant": true,
      "inputs": [],
      "name": "managerAddress",
      "outputs": [
        {
          "name": "",
          "type": "address"
        }
      ],
      "payable": false,
      "stateMutability": "view",
      "type": "function"
    },
    {
      "constant": true,
      "inputs": [
        {
          "name": "",
          "type": "uint256"
        }
      ],
      "name": "sellingItems",
      "outputs": [
        {
          "name": "",
          "type": "uint256"
        }
      ],
      "payable": false,
      "stateMutability": "view",
      "type": "function"
    },
    {
      "inputs": [],
      "payable": false,
      "stateMutability": "nonpayable",
      "type": "constructor"
    },
    {
      "anonymous": false,
      "inputs": [
        {
          "indexed": false,
          "name": "id",
          "type": "uint256"
        },
        {
          "indexed": false,
          "name": "price",
          "type": "uint256"
        },
        {
          "indexed": false,
          "name": "owner",
          "type": "address"
        }
      ],
      "name": "Sell",
      "type": "event"
    },
    {
      "anonymous": false,
      "inputs": [
        {
          "indexed": false,
          "name": "id",
          "type": "uint256"
        },
        {
          "indexed": false,
          "name": "price",
          "type": "uint256"
        }
      ],
      "name": "Buy",
      "type": "event"
    },
    {
      "anonymous": false,
      "inputs": [
        {
          "indexed": false,
          "name": "amount",
          "type": "uint256"
        }
      ],
      "name": "WithdrawStake",
      "type": "event"
    },
    {
      "constant": false,
      "inputs": [
        {
          "name": "_pointContractAddress",
          "type": "address"
        }
      ],
      "name": "setPointContract",
      "outputs": [],
      "payable": false,
      "stateMutability": "nonpayable",
      "type": "function"
    },
    {
      "constant": false,
      "inputs": [
        {
          "name": "_buyBackRate",
          "type": "uint256"
        }
      ],
      "name": "setBuyBackRate",
      "outputs": [],
      "payable": false,
      "stateMutability": "nonpayable",
      "type": "function"
    },
    {
      "constant": false,
      "inputs": [
        {
          "name": "_interestRate",
          "type": "uint256"
        }
      ],
      "name": "setInterestRate",
      "outputs": [],
      "payable": false,
      "stateMutability": "nonpayable",
      "type": "function"
    },
    {
      "constant": true,
      "inputs": [],
      "name": "getAllItems",
      "outputs": [
        {
          "name": "",
          "type": "uint256[]"
        },
        {
          "name": "",
          "type": "bool[]"
        }
      ],
      "payable": false,
      "stateMutability": "view",
      "type": "function"
    },
    {
      "constant": true,
      "inputs": [],
      "name": "getSellingItems",
      "outputs": [
        {
          "name": "",
          "type": "uint256[]"
        }
      ],
      "payable": false,
      "stateMutability": "view",
      "type": "function"
    },
    {
      "constant": true,
      "inputs": [
        {
          "name": "_id",
          "type": "uint256"
        }
      ],
      "name": "getItemById",
      "outputs": [
        {
          "name": "",
          "type": "uint256"
        },
        {
          "name": "",
          "type": "address"
        },
        {
          "name": "",
          "type": "string"
        },
        {
          "name": "",
          "type": "uint256"
        },
        {
          "name": "",
          "type": "string"
        }
      ],
      "payable": false,
      "stateMutability": "view",
      "type": "function"
    },
    {
      "constant": true,
      "inputs": [
        {
          "name": "_owner",
          "type": "address"
        }
      ],
      "name": "itemsOf",
      "outputs": [
        {
          "name": "",
          "type": "uint256[]"
        }
      ],
      "payable": false,
      "stateMutability": "view",
      "type": "function"
    },
    {
      "constant": true,
      "inputs": [],
      "name": "getMarketBalance",
      "outputs": [
        {
          "name": "",
          "type": "uint256"
        }
      ],
      "payable": false,
      "stateMutability": "view",
      "type": "function"
    },
    {
      "constant": false,
      "inputs": [
        {
          "name": "_name",
          "type": "string"
        },
        {
          "name": "_price",
          "type": "uint256"
        },
        {
          "name": "_owner",
          "type": "address"
        },
        {
          "name": "_imageUrl",
          "type": "string"
        },
        {
          "name": "_itemType",
          "type": "uint256"
        }
      ],
      "name": "sell",
      "outputs": [],
      "payable": false,
      "stateMutability": "nonpayable",
      "type": "function"
    },
    {
      "constant": false,
      "inputs": [
        {
          "name": "_id",
          "type": "uint256"
        }
      ],
      "name": "buy",
      "outputs": [],
      "payable": true,
      "stateMutability": "payable",
      "type": "function"
    },
    {
      "constant": true,
      "inputs": [
        {
          "name": "account",
          "type": "address"
        }
      ],
      "name": "getWithdrawableStake",
      "outputs": [
        {
          "name": "",
          "type": "uint256"
        }
      ],
      "payable": false,
      "stateMutability": "view",
      "type": "function"
    },
    {
      "constant": false,
      "inputs": [
        {
          "name": "amount",
          "type": "uint256"
        }
      ],
      "name": "withdrawStake",
      "outputs": [],
      "payable": true,
      "stateMutability": "payable",
      "type": "function"
    },
    {
      "constant": false,
      "inputs": [],
      "name": "withdraw",
      "outputs": [],
      "payable": false,
      "stateMutability": "nonpayable",
      "type": "function"
    }
  ],
  "bytecode": "0x608060405234801561001057600080fd5b5033600160006101000a81548173ffffffffffffffffffffffffffffffffffffffff021916908373ffffffffffffffffffffffffffffffffffffffff160217905550612641806100616000396000f3fe60806040526004361061012a5760003560e01c80637231a876116100ab578063bfb231d21161006f578063bfb231d214610619578063c1d3ce7c14610785578063cd2f071014610918578063cf73a1bc14610a79578063d96a094a14610ad0578063ff5257eb14610afe5761012a565b80637231a8761461047557806373210fb11461051b5780637c3a00fd14610572578063964eec701461059d578063b5a60d09146105c85761012a565b806327c6919d116100f257806327c6919d146102c85780633ccfd60b146103035780634ba1d6aa1461031a57806359626268146103ce5780635f84f3021461043a5761012a565b80630103c92b1461012f57806308fff3e81461019b578063178a8d071461020a5780631f1d60611461023557806325d5971f1461029a575b600080fd5b34801561013b57600080fd5b5061017e6004803603602081101561015257600080fd5b81019080803573ffffffffffffffffffffffffffffffffffffffff169060200190929190505050610b4d565b604051808381526020018281526020019250505060405180910390f35b3480156101a757600080fd5b506101f4600480360360408110156101be57600080fd5b81019080803573ffffffffffffffffffffffffffffffffffffffff16906020019092919080359060200190929190505050610b71565b6040518082815260200191505060405180910390f35b34801561021657600080fd5b5061021f610b9f565b6040518082815260200191505060405180910390f35b34801561024157600080fd5b506102846004803603602081101561025857600080fd5b81019080803573ffffffffffffffffffffffffffffffffffffffff169060200190929190505050610ba5565b6040518082815260200191505060405180910390f35b6102c6600480360360208110156102b057600080fd5b8101908080359060200190929190505050610cfe565b005b3480156102d457600080fd5b50610301600480360360208110156102eb57600080fd5b8101908080359060200190929190505050611165565b005b34801561030f57600080fd5b50610318611232565b005b34801561032657600080fd5b5061032f611377565b604051808060200180602001838103835285818151815260200191508051906020019060200280838360005b8381101561037657808201518184015260208101905061035b565b50505050905001838103825284818151815260200191508051906020019060200280838360005b838110156103b857808201518184015260208101905061039d565b5050505090500194505050505060405180910390f35b3480156103da57600080fd5b506103e3611486565b6040518080602001828103825283818151815260200191508051906020019060200280838360005b8381101561042657808201518184015260208101905061040b565b505050509050019250505060405180910390f35b34801561044657600080fd5b506104736004803603602081101561045d57600080fd5b81019080803590602001909291905050506114de565b005b34801561048157600080fd5b506104c46004803603602081101561049857600080fd5b81019080803573ffffffffffffffffffffffffffffffffffffffff1690602001909291905050506115ab565b6040518080602001828103825283818151815260200191508051906020019060200280838360005b838110156105075780820151818401526020810190506104ec565b505050509050019250505060405180910390f35b34801561052757600080fd5b50610530611642565b604051808273ffffffffffffffffffffffffffffffffffffffff1673ffffffffffffffffffffffffffffffffffffffff16815260200191505060405180910390f35b34801561057e57600080fd5b50610587611667565b6040518082815260200191505060405180910390f35b3480156105a957600080fd5b506105b261166d565b6040518082815260200191505060405180910390f35b3480156105d457600080fd5b50610617600480360360208110156105eb57600080fd5b81019080803573ffffffffffffffffffffffffffffffffffffffff16906020019092919050505061168c565b005b34801561062557600080fd5b506106526004803603602081101561063c57600080fd5b8101908080359060200190929190505050611818565b60405180806020018781526020018673ffffffffffffffffffffffffffffffffffffffff1673ffffffffffffffffffffffffffffffffffffffff1681526020018060200185815260200184151515158152602001838103835289818151815260200191508051906020019080838360005b838110156106de5780820151818401526020810190506106c3565b50505050905090810190601f16801561070b5780820380516001836020036101000a031916815260200191505b50838103825286818151815260200191508051906020019080838360005b83811015610744578082015181840152602081019050610729565b50505050905090810190601f1680156107715780820380516001836020036101000a031916815260200191505b509850505050505050505060405180910390f35b34801561079157600080fd5b50610916600480360360a08110156107a857600080fd5b81019080803590602001906401000000008111156107c557600080fd5b8201836020820111156107d757600080fd5b803590602001918460018302840111640100000000831117156107f957600080fd5b91908080601f016020809104026020016040519081016040528093929190818152602001838380828437600081840152601f19601f82011690508083019250505050505050919291929080359060200190929190803573ffffffffffffffffffffffffffffffffffffffff1690602001909291908035906020019064010000000081111561088657600080fd5b82018360208201111561089857600080fd5b803590602001918460018302840111640100000000831117156108ba57600080fd5b91908080601f016020809104026020016040519081016040528093929190818152602001838380828437600081840152601f19601f820116905080830192505050505050509192919290803590602001909291905050506119be565b005b34801561092457600080fd5b506109516004803603602081101561093b57600080fd5b8101908080359060200190929190505050611c23565b604051808681526020018573ffffffffffffffffffffffffffffffffffffffff1673ffffffffffffffffffffffffffffffffffffffff1681526020018060200184815260200180602001838103835286818151815260200191508051906020019080838360005b838110156109d35780820151818401526020810190506109b8565b50505050905090810190601f168015610a005780820380516001836020036101000a031916815260200191505b50838103825284818151815260200191508051906020019080838360005b83811015610a39578082015181840152602081019050610a1e565b50505050905090810190601f168015610a665780820380516001836020036101000a031916815260200191505b5097505050505050505060405180910390f35b348015610a8557600080fd5b50610a8e611e4a565b604051808273ffffffffffffffffffffffffffffffffffffffff1673ffffffffffffffffffffffffffffffffffffffff16815260200191505060405180910390f35b610afc60048036036020811015610ae657600080fd5b8101908080359060200190929190505050611e70565b005b348015610b0a57600080fd5b50610b3760048036036020811015610b2157600080fd5b810190808035906020019092919050505061241b565b6040518082815260200191505060405180910390f35b60076020528060005260406000206000915090508060000154908060010154905082565b60066020528160005260406000208181548110610b8a57fe5b90600052602060002001600091509150505481565b60025481565b600080600760008473ffffffffffffffffffffffffffffffffffffffff1673ffffffffffffffffffffffffffffffffffffffff168152602001908152602001600020905060008060009054906101000a900473ffffffffffffffffffffffffffffffffffffffff1673ffffffffffffffffffffffffffffffffffffffff166370a08231856040518263ffffffff1660e01b8152600401808273ffffffffffffffffffffffffffffffffffffffff1673ffffffffffffffffffffffffffffffffffffffff16815260200191505060206040518083038186803b158015610c8957600080fd5b505afa158015610c9d573d6000803e3d6000fd5b505050506040513d6020811015610cb357600080fd5b810190808051906020019092919050505090506000606482600354620151808660000154420381610ce057fe5b04020281610cea57fe5b048360010154019050809350505050919050565b600073ffffffffffffffffffffffffffffffffffffffff166000809054906101000a900473ffffffffffffffffffffffffffffffffffffffff1673ffffffffffffffffffffffffffffffffffffffff161415610dc2576040517f08c379a000000000000000000000000000000000000000000000000000000000815260040180806020018281038252601a8152602001807f506f696e7420636f6e7472616374206d7573742065786973742100000000000081525060200191505060405180910390fd5b60003073ffffffffffffffffffffffffffffffffffffffff1631905081811015610e37576040517f08c379a000000000000000000000000000000000000000000000000000000000815260040180806020018281038252602b815260200180612583602b913960400191505060405180910390fd5b6000600760003373ffffffffffffffffffffffffffffffffffffffff1673ffffffffffffffffffffffffffffffffffffffff168152602001908152602001600020905060008060009054906101000a900473ffffffffffffffffffffffffffffffffffffffff1673ffffffffffffffffffffffffffffffffffffffff166370a08231336040518263ffffffff1660e01b8152600401808273ffffffffffffffffffffffffffffffffffffffff1673ffffffffffffffffffffffffffffffffffffffff16815260200191505060206040518083038186803b158015610f1a57600080fd5b505afa158015610f2e573d6000803e3d6000fd5b505050506040513d6020811015610f4457600080fd5b810190808051906020019092919050505090506000606482600354620151808660000154420381610f7157fe5b04020281610f7b57fe5b04836001015401905084811015610fdd576040517f08c379a00000000000000000000000000000000000000000000000000000000081526004018080602001828103825260388152602001806125de6038913960400191505060405180910390fd5b84810383600101819055504283600001819055506000809054906101000a900473ffffffffffffffffffffffffffffffffffffffff1673ffffffffffffffffffffffffffffffffffffffff16639c4d3fe033838886028161103a57fe5b046040518363ffffffff1660e01b8152600401808373ffffffffffffffffffffffffffffffffffffffff1673ffffffffffffffffffffffffffffffffffffffff16815260200182815260200192505050602060405180830381600087803b1580156110a457600080fd5b505af11580156110b8573d6000803e3d6000fd5b505050506040513d60208110156110ce57600080fd5b8101908080519060200190929190505050503373ffffffffffffffffffffffffffffffffffffffff166108fc869081150290604051600060405180830381858888f19350505050158015611126573d6000803e3d6000fd5b507fff34585d7a2232a89ef664b8d4790f8fa9f92983c01c90d1903218e802042881856040518082815260200191505060405180910390a15050505050565b600160009054906101000a900473ffffffffffffffffffffffffffffffffffffffff1673ffffffffffffffffffffffffffffffffffffffff163373ffffffffffffffffffffffffffffffffffffffff1614611228576040517f08c379a000000000000000000000000000000000000000000000000000000000815260040180806020018281038252600f8152602001807f4d757374206265206d616e61676572000000000000000000000000000000000081525060200191505060405180910390fd5b8060028190555050565b600160009054906101000a900473ffffffffffffffffffffffffffffffffffffffff1673ffffffffffffffffffffffffffffffffffffffff163373ffffffffffffffffffffffffffffffffffffffff16146112f5576040517f08c379a000000000000000000000000000000000000000000000000000000000815260040180806020018281038252600f8152602001807f4d757374206265206d616e61676572000000000000000000000000000000000081525060200191505060405180910390fd5b600160009054906101000a900473ffffffffffffffffffffffffffffffffffffffff1673ffffffffffffffffffffffffffffffffffffffff166108fc3073ffffffffffffffffffffffffffffffffffffffff16319081150290604051600060405180830381858888f19350505050158015611374573d6000803e3d6000fd5b50565b60608060606005805490506040519080825280602002602001820160405280156113b05781602001602082028038833980820191505090505b50905060606005805490506040519080825280602002602001820160405280156113e95781602001602082028038833980820191505090505b50905060008090505b6005805490508110156114795760006005828154811061140e57fe5b90600052602060002090600602019050806001015484838151811061142f57fe5b6020026020010181815250508060050160009054906101000a900460ff1683838151811061145957fe5b6020026020010190151590811515815250505080806001019150506113f2565b5081819350935050509091565b606060048054806020026020016040519081016040528092919081815260200182805480156114d457602002820191906000526020600020905b8154815260200190600101908083116114c0575b5050505050905090565b600160009054906101000a900473ffffffffffffffffffffffffffffffffffffffff1673ffffffffffffffffffffffffffffffffffffffff163373ffffffffffffffffffffffffffffffffffffffff16146115a1576040517f08c379a000000000000000000000000000000000000000000000000000000000815260040180806020018281038252600f8152602001807f4d757374206265206d616e61676572000000000000000000000000000000000081525060200191505060405180910390fd5b8060038190555050565b6060600660008373ffffffffffffffffffffffffffffffffffffffff1673ffffffffffffffffffffffffffffffffffffffff16815260200190815260200160002080548060200260200160405190810160405280929190818152602001828054801561163657602002820191906000526020600020905b815481526020019060010190808311611622575b50505050509050919050565b6000809054906101000a900473ffffffffffffffffffffffffffffffffffffffff1681565b60035481565b60003073ffffffffffffffffffffffffffffffffffffffff1631905090565b600160009054906101000a900473ffffffffffffffffffffffffffffffffffffffff1673ffffffffffffffffffffffffffffffffffffffff163373ffffffffffffffffffffffffffffffffffffffff161461174f576040517f08c379a000000000000000000000000000000000000000000000000000000000815260040180806020018281038252600f8152602001807f4d757374206265206d616e61676572000000000000000000000000000000000081525060200191505060405180910390fd5b600073ffffffffffffffffffffffffffffffffffffffff168173ffffffffffffffffffffffffffffffffffffffff1614156117d5576040517f08c379a00000000000000000000000000000000000000000000000000000000081526004018080602001828103825260308152602001806125ae6030913960400191505060405180910390fd5b806000806101000a81548173ffffffffffffffffffffffffffffffffffffffff021916908373ffffffffffffffffffffffffffffffffffffffff16021790555050565b6005818154811061182557fe5b9060005260206000209060060201600091509050806000018054600181600116156101000203166002900480601f0160208091040260200160405190810160405280929190818152602001828054600181600116156101000203166002900480156118d15780601f106118a6576101008083540402835291602001916118d1565b820191906000526020600020905b8154815290600101906020018083116118b457829003601f168201915b5050505050908060010154908060020160009054906101000a900473ffffffffffffffffffffffffffffffffffffffff1690806003018054600181600116156101000203166002900480601f01602080910402602001604051908101604052809291908181526020018280546001816001161561010002031660029004801561199b5780601f106119705761010080835404028352916020019161199b565b820191906000526020600020905b81548152906001019060200180831161197e57829003601f168201915b5050505050908060040154908060050160009054906101000a900460ff16905086565b806000111580156119d0575060048111155b611a42576040517f08c379a00000000000000000000000000000000000000000000000000000000081526004018080602001828103825260188152602001807f4974656d2074797065206d75737420696e2030202d3e2034000000000000000081525060200191505060405180910390fd5b60056040518060c001604052808781526020018681526020018573ffffffffffffffffffffffffffffffffffffffff16815260200184815260200183815260200160011515815250908060018154018082558091505090600182039060005260206000209060060201600090919290919091506000820151816000019080519060200190611ad19291906124dd565b506020820151816001015560408201518160020160006101000a81548173ffffffffffffffffffffffffffffffffffffffff021916908373ffffffffffffffffffffffffffffffffffffffff1602179055506060820151816003019080519060200190611b3f9291906124dd565b506080820151816004015560a08201518160050160006101000a81548160ff021916908315150217905550505050600460016005805490500390806001815401808255809150509060018203906000526020600020016000909192909190915055507f1cdb5ee3c47e1a706ac452b89698e5e3f2ff4f835ca72dde8936d0f4fcf37d816001600580549050038585604051808481526020018381526020018273ffffffffffffffffffffffffffffffffffffffff1673ffffffffffffffffffffffffffffffffffffffff168152602001935050505060405180910390a15050505050565b600080606060006060856005805490508110611ca7576040517f08c379a00000000000000000000000000000000000000000000000000000000081526004018080602001828103825260128152602001807f4974656d206d757374206265206578697374000000000000000000000000000081525060200191505060405180910390fd5b600060058881548110611cb657fe5b9060005260206000209060060201905080600101548160020160009054906101000a900473ffffffffffffffffffffffffffffffffffffffff1682600301836004015484600001828054600181600116156101000203166002900480601f016020809104026020016040519081016040528092919081815260200182805460018160011615610100020316600290048015611d925780601f10611d6757610100808354040283529160200191611d92565b820191906000526020600020905b815481529060010190602001808311611d7557829003601f168201915b50505050509250808054600181600116156101000203166002900480601f016020809104026020016040519081016040528092919081815260200182805460018160011615610100020316600290048015611e2e5780601f10611e0357610100808354040283529160200191611e2e565b820191906000526020600020905b815481529060010190602001808311611e1157829003601f168201915b5050505050905096509650965096509650505091939590929450565b600160009054906101000a900473ffffffffffffffffffffffffffffffffffffffff1681565b806005805490508110611eeb576040517f08c379a00000000000000000000000000000000000000000000000000000000081526004018080602001828103825260128152602001807f4974656d206d757374206265206578697374000000000000000000000000000081525060200191505060405180910390fd5b8160058181548110611ef957fe5b906000526020600020906006020160050160009054906101000a900460ff16611f8a576040517f08c379a00000000000000000000000000000000000000000000000000000000081526004018080602001828103825260148152602001807f4974656d206d757374206265206f6e2073616c6500000000000000000000000081525060200191505060405180910390fd5b600073ffffffffffffffffffffffffffffffffffffffff166000809054906101000a900473ffffffffffffffffffffffffffffffffffffffff1673ffffffffffffffffffffffffffffffffffffffff16141561204e576040517f08c379a000000000000000000000000000000000000000000000000000000000815260040180806020018281038252601a8152602001807f506f696e7420636f6e7472616374206d7573742065786973742100000000000081525060200191505060405180910390fd5b60006005848154811061205d57fe5b9060005260206000209060060201905080600101543410156120e7576040517f08c379a00000000000000000000000000000000000000000000000000000000081526004018080602001828103825260168152602001807f4d757374206861766520656e6f756768206d6f6e65790000000000000000000081525060200191505060405180910390fd5b60008160050160006101000a81548160ff021916908315150217905550600660003373ffffffffffffffffffffffffffffffffffffffff1673ffffffffffffffffffffffffffffffffffffffff1681526020019081526020016000208490806001815401808255809150509060018203906000526020600020016000909192909190915055506121768461243c565b6000600760003373ffffffffffffffffffffffffffffffffffffffff1673ffffffffffffffffffffffffffffffffffffffff168152602001908152602001600020905060008060009054906101000a900473ffffffffffffffffffffffffffffffffffffffff1673ffffffffffffffffffffffffffffffffffffffff166370a08231336040518263ffffffff1660e01b8152600401808273ffffffffffffffffffffffffffffffffffffffff1673ffffffffffffffffffffffffffffffffffffffff16815260200191505060206040518083038186803b15801561225957600080fd5b505afa15801561226d573d6000803e3d6000fd5b505050506040513d602081101561228357600080fd5b810190808051906020019092919050505090506064816003546201518085600001544203816122ae57fe5b040202816122b857fe5b04826001016000828254019250508190555042826000018190555060006103e8846001015460025402816122e857fe5b0490506000809054906101000a900473ffffffffffffffffffffffffffffffffffffffff1673ffffffffffffffffffffffffffffffffffffffff166340c10f1933836040518363ffffffff1660e01b8152600401808373ffffffffffffffffffffffffffffffffffffffff1673ffffffffffffffffffffffffffffffffffffffff16815260200182815260200192505050602060405180830381600087803b15801561239357600080fd5b505af11580156123a7573d6000803e3d6000fd5b505050506040513d60208110156123bd57600080fd5b8101908080519060200190929190505050507f76911b5d8081a7d290dd15cdb0e39e9513ac7e8d1cce3275a7cf1380889abacc878560010154604051808381526020018281526020019250505060405180910390a150505050505050565b6004818154811061242857fe5b906000526020600020016000915090505481565b60005b6004805490508110156124d957816004828154811061245a57fe5b906000526020600020015414156124cc5760046001600480549050038154811061248057fe5b90600052602060002001546004828154811061249857fe5b906000526020600020018190555060048054806124b157fe5b600190038181906000526020600020016000905590556124d9565b808060010191505061243f565b5050565b828054600181600116156101000203166002900490600052602060002090601f016020900481019282601f1061251e57805160ff191683800117855561254c565b8280016001018555821561254c579182015b8281111561254b578251825591602001919060010190612530565b5b509050612559919061255d565b5090565b61257f91905b8082111561257b576000816000905550600101612563565b5090565b9056fe4d61726b65742062616c616e63652068617665206e6f7420656e6f75676820746f20776974686472617721506f696e7420636f6e74726163742061646472657373206d757374206e6f74206265206e756c6c2061646472657373215769746864726177206d757374206265206c657373206f7220657175616c20616d6f756e74206f66206d6f6e657920696e207374616b6521a165627a7a7230582080e62674af84196cf04a10ad3f523fe42a135cace13d1c7761e70a33cd6ab61d0029",
  "source": "pragma solidity ^0.5.0;\nimport \"./Point.sol\";\n\ncontract Market {\n    struct Item {\n        string name;\n        uint256 price;\n        address owner;\n        string imageUrl;\n        uint256 itemType;\n        bool isSelling;\n    }\n\n    /**\n     * timeStart: Timeline to calculate the next interest amount\n     * currentFund: Current fund without taking next interest (convert to ONE)\n     */\n\n    struct Balance {\n        uint256 timeStart;\n        uint256 currentFund;\n    }\n\n    Point public pointContract;\n    address payable public managerAddress;\n    uint256 public buyBackRate;\n    uint256 public interestRate;\n\n    uint256[] public sellingItems;\n    Item[] public items;\n    mapping(address => uint256[]) public buyerItems;\n    mapping(address => Balance) public userBalance;\n\n    //EVENT\n\n    /** emitted when a new item is sell in Market\n     */\n    event Sell(uint256 id, uint256 price, address owner);\n    event Buy(uint256 id, uint256 price);\n    event WithdrawStake(uint256 amount);\n\n    modifier onlyManager() {\n        require(msg.sender == managerAddress, \"Must be manager\");\n        _;\n    }\n\n    //MODIFIER\n    modifier itemInList(uint256 _id) {\n        require(_id < items.length, \"Item must be exist\");\n        _;\n    }\n\n    modifier itemOnSale(uint256 _id) {\n        require(items[_id].isSelling, \"Item must be on sale\");\n        _;\n    }\n\n    modifier pointContractMustExist() {\n        require(\n            address(pointContract) != address(0),\n            \"Point contract must exist!\"\n        );\n        _;\n    }\n\n    //FUNCTION\n    constructor() public {\n        managerAddress = msg.sender;\n    }\n\n    function setPointContract(address _pointContractAddress)\n        public\n        onlyManager\n    {\n        require(\n            _pointContractAddress != address(0),\n            \"Point contract address must not be null address!\"\n        );\n\n        pointContract = Point(_pointContractAddress);\n    }\n\n    function setBuyBackRate(uint256 _buyBackRate) public onlyManager {\n        buyBackRate = _buyBackRate;\n    }\n\n    function setInterestRate(uint256 _interestRate) public onlyManager {\n        interestRate = _interestRate;\n    }\n\n    function getAllItems()\n        public\n        view\n        returns (uint256[] memory, bool[] memory)\n    {\n        uint256[] memory price = new uint256[](items.length);\n        bool[] memory isSelling = new bool[](items.length);\n\n        for (uint256 i = 0; i < items.length; i++) {\n            Item storage item = items[i];\n            price[i] = item.price;\n            isSelling[i] = item.isSelling;\n        }\n\n        return (price, isSelling);\n    }\n\n    function getSellingItems() public view returns (uint256[] memory) {\n        return sellingItems;\n    }\n\n    function getItemById(uint256 _id)\n        public\n        view\n        itemInList(_id)\n        returns (\n            uint256,\n            address,\n            string memory,\n            uint256,\n            string memory\n        )\n    {\n        Item storage item = items[_id];\n        return (\n            item.price,\n            item.owner,\n            item.imageUrl,\n            item.itemType,\n            item.name\n        );\n    }\n\n    function itemsOf(address _owner) public view returns (uint256[] memory) {\n        return buyerItems[_owner];\n    }\n\n    function getMarketBalance() public view returns (uint256) {\n        return address(this).balance;\n    }\n\n    function sell(\n        string memory _name,\n        uint256 _price,\n        address _owner,\n        string memory _imageUrl,\n        uint256 _itemType\n    ) public {\n        require(0 <= _itemType && _itemType <= 4, \"Item type must in 0 -> 4\");\n\n        items.push(Item(_name, _price, _owner, _imageUrl, _itemType, true));\n        sellingItems.push(items.length - 1);\n        emit Sell(items.length - 1, _price, _owner);\n    }\n\n    function buy(uint256 _id)\n        public\n        payable\n        itemInList(_id)\n        itemOnSale(_id)\n        pointContractMustExist\n    {\n        Item storage item = items[_id];\n        require(msg.value >= item.price, \"Must have enough money\");\n        item.isSelling = false;\n        buyerItems[msg.sender].push(_id);\n        removeFromSellingItem(_id);\n\n        // update currentFund before adding point\n        Balance storage balance = userBalance[msg.sender];\n        uint256 currentPoint = pointContract.balanceOf(msg.sender);\n        balance.currentFund +=\n            (((block.timestamp - balance.timeStart) / (1 days)) *\n                interestRate *\n                currentPoint) /\n            100;\n        balance.timeStart = block.timestamp;\n\n        // calculate and back point\n        uint256 pointAmount = (buyBackRate * item.price) / 1000;\n        pointContract.mint(msg.sender, pointAmount);\n\n        emit Buy(_id, item.price);\n    }\n\n    function getWithdrawableStake(address account)\n        public\n        view\n        returns (uint256)\n    {\n        Balance storage balance = userBalance[account];\n        uint256 currentPoint = pointContract.balanceOf(account);\n\n        uint256 withdrawableStake = balance.currentFund +\n            (((block.timestamp - balance.timeStart) / (1 days)) *\n                interestRate *\n                currentPoint) /\n            100;\n        return withdrawableStake;\n    }\n\n    function withdrawStake(uint256 amount)\n        public\n        payable\n        pointContractMustExist\n    {\n        uint256 marketBalance = address(this).balance;\n        require(\n            marketBalance >= amount,\n            \"Market balance have not enough to withdraw!\"\n        );\n\n        Balance storage balance = userBalance[msg.sender];\n        uint256 currentPoint = pointContract.balanceOf(msg.sender);\n\n        uint256 withdrawableStake = balance.currentFund +\n            (((block.timestamp - balance.timeStart) / (1 days)) *\n                interestRate *\n                currentPoint) /\n            100;\n\n        require(\n            withdrawableStake >= amount,\n            \"Withdraw must be less or equal amount of money in stake!\"\n        );\n\n        balance.currentFund = withdrawableStake - amount;\n        balance.timeStart = block.timestamp;\n\n        pointContract.burnSun(\n            msg.sender,\n            (currentPoint * amount) / withdrawableStake\n        );\n\n        msg.sender.transfer(amount);\n        emit WithdrawStake(amount);\n    }\n\n    /** Remove item in sellingItems when it was bought\n     */\n    function removeFromSellingItem(uint256 _id) internal {\n        for (uint256 i; i < sellingItems.length; i++) {\n            if (sellingItems[i] == _id) {\n                sellingItems[i] = sellingItems[sellingItems.length - 1];\n                sellingItems.pop();\n                break;\n            }\n        }\n    }\n\n    function withdraw() public onlyManager {\n        managerAddress.transfer(address(this).balance);\n    }\n}\n",
  "sourcePath": "/home/ngo.van.nghia/Documents/POC/token-back/contract/contracts/Market.sol",
  "compiler": {
    "name": "solc",
    "version": "0.5.8+commit.23d335f2.Emscripten.clang"
  },
  "schemaVersion": "3.2.4",
  "updatedAt": "2020-09-22T03:17:16.028Z",
  "networkType": "ethereum",
  "devdoc": {
    "methods": {}
  },
  "userdoc": {
    "methods": {}
  }
}